:020000040800F2
:10000000C0050020D5000008250B0008B905000830
:1000100000000000000000000000000000000000E0
:10002000000000000000000000000000DF0C0008DD
:100030000000000000000000DD0C0008B50E000804
:10004000000000000000000000000000E7000008C1
:10005000E7000008E7000008E70000088105000845
:100060000000000000000000000000000000000090
:10007000E7000008F10E0008E7000008000000009B
:1000800000000000E7000008000000000000000081
:1000900000000000E700000800000000E700000882
:1000A00000000000E700000800000000150F000835
:1000B0000000000000000000000000000000000040
:1000C0000348854600F04CF80048004791010008BD
:1000D000C00500200448804704480047FEE7FEE7CB
:1000E000FEE7FEE7FEE7FEE7B90E0008C1000008E4
:1000F000D2B201E00270401C491EFBD270470022C0
:10010000F6E710B513460A4604461946FFF7F0FF16
:10011000204610BD421C0178401C0029FBD1801AEA
:10012000704770B50446002903D000202022012327
:1001300010E0002801D00020C043C046C0460DE0BA
:100140002546D5408D4205D30D469540641B1D467E
:10015000954040191546521E002DF1DC214670BD18
:100160001CB5094800900948019005460126009CED
:1001700005E0E36807CC33430C3C98471034AC42AD
:10018000F7D3FFF7A1FF0000A0120008C01200087B
:1001900080B5002007490122D306C3580B50001D2B
:1001A000C028F8D150070449086001F07BF900200D
:1001B00080BDC0460000002008ED00E0F0B58DB025
:1001C00001200C9006460190002002900B900A90AE
:1001D0000320039009900227089704200790052028
:1001E000040707AD2046294600F03AFA0C9608208D
:1001F00007902046294600F033FA0D200C90079610
:100200002046294600F02CFA07972046294600F0A0
:1002100027FA0896202607962046294600F020FA5D
:10022000A661029F0897102607962046294600F0EF
:1002300017FA059704A801998180039C847104969C
:1002400000F0BCF907480168A1430160FF200006E7
:1002500005490A6882430A600448802101600DB0A4
:10026000F0BDC0466418024004E400E000E100E094
:1002700070B584B001263102224D28460838026844
:100280000A43026020490968204A0A40291F0B6876
:100290001F4C1C401219F303D2180A60016849056B
:1002A000FCD50F20000229688143296029680720B6
:1002B0008143296029688906490FFBD10003296819
:1002C00081432960134C204600F022FA204600F0BA
:1002D00069FAE86A3043E862E86A304001900198C0
:1002E000B003A96B0143A963A96B01400291029875
:1002F000F002A96B0143A963A96B01400391039824
:1003000004B070BD08100240100FFF1FFF1F000057
:100310000000FFFF00366E01BFF34F8F0348044912
:100320000160BFF34F8F00BFFDE7C0460CED00E05A
:100330000400FA05B0B5234801460C390A68920654
:1003400020D5026892061DD50246083A14681E4B55
:100350001D781E4A54551C78641C1C701C78642C33
:1003600001D300241C701C78194D2D78AC4209D1A2
:100370001C78002C03D01B785B1EDBB200E06323EB
:100380000024D454096809061AD50168090617D54E
:1003900010490A78104B9A5C0346083B1A600A78A9
:1003A000521C0A700A78642A01D300220A70097864
:1003B0000A4A1278914203D1016880229143016078
:1003C000B0BDC0460C38014049010020E5000020C6
:1003D0004A010020B00100204B010020AF010020A5
:1003E000B0B573490A785B48022A05D102460C3A37
:1003F000136801241C4314600A78002A03D0564A6B
:1004000013685B1C13600A78012A26D1524A1368CC
:10041000152B07D31368182B04D843684F4C256855
:10042000EB1823601268192A11D14C4A13689C08F2
:1004300014604B4A9B18242B02D30022D24300E0C5
:100440003222A033242B00D23C22464B1A700246A3
:100450000C3A136801241C4314600978022978D1EE
:1004600041490B88414A1488A34231D00B88148833
:10047000A34214D20B88092B06D801231B0304685E
:100480001C4304600A2307E00B885B1D0B800B886C
:100490001488A34201D913880B800B8803620B8850
:1004A0001488A34214D90B885B1F0B800B88148817
:1004B000A34201D212880A800A88092A06D800229B
:1004C0000A800122120303689343036009880162D2
:1004D000274A137827490C78A34233D00B78002B96
:1004E00016D1204B1B789B00234C237004230B70E8
:1004F0000B785B1EDBB2022B03D89B001F4CE3582A
:1005000000E00023C36101231B0204681C43046054
:10051000194B1B78002B15D112780A700A78002A23
:1005200008D00978491EC9B2022909D88900134A9E
:10053000515806E00121090202688A43026001E085
:100540000021C1610C480178002902D00178491EC0
:100550000170B0BD202C0140B4010020B801002082
:1005600050FCFFFFD0000020E0000020E20000204F
:10057000DF000020DD000020DE000020FC1100086C
:1005800080B504480168C90603D510210160FFF752
:1005900027FF80BD0C180240054864210170054CFE
:1005A0002068202141402160962000F0A9FAF7E759
:1005B000E400002014000050FEE70000014602683D
:1005C0000079002810D0002A15D04879022818D0C8
:1005D000012812D000281DD11F484368934343606F
:1005E00003681343036013E01B48016891430160F3
:1005F0004168914341600020704717480368934366
:1006000002E01548036813430360436813434360E3
:10061000002000E00120897903291AD8794409795A
:1006200049008F4401020A0EE6E70C494B689343E8
:100630004B600B6813430B60704708490B6893438A
:1006400002E006490B6813430B604B6813434B6091
:100650007047801C7047C046801802400018024056
:10066000F0B582B00D460B68002B44D000220095F7
:100670000EE069696443644361430F236343446A42
:100680009C430C434462521C2B681C46D44032D01D
:10069000012494401C40F6D02346634369681E46FB
:1006A0004E4303275F430568BD4335430560FE4362
:1006B00001914D1E012D06D8009DAD685D438768F0
:1006C00037402F4387603146009E35695D43C768D8
:1006D0000F402F43C760019902293546D3D1240A20
:1006E000C7D15B43696959430F245C43036AA34341
:1006F0000B430362C7E76968491E012905D8E96809
:10070000594342689A430A434260012002B0F0BD57
:1007100080B57D21C900FFF704FD401E03494860F4
:10072000002088600520086080BDC04610E000E021
:1007300010B517490B6838221A40082A04D0182A25
:1007400004D10122D2030EE0124A0CE00A1F126803
:10075000D20A1C231340104AD2580B46083B1B6890
:100760009B045B0FDA4002600B689B093C241C4031
:100770000A4B1B591F242340DA4042600968890A4A
:100780001C230B400649C9582140CA40826010BD55
:100790000810024000366E016812000808120008B6
:1007A00048120008014908607047C046C000002098
:1007B000B0B50368944A904201D01C4603E070240F
:1007C000A3434C681C438F4B984201D0904205D103
:1007D00003252D02AC43CD68254300E02546056086
:1007E0008C68C4620C888462984201D0904201D126
:1007F000097C0163426901210A4342610846B0BD98
:10080000F0B585B00027FF2941DC012960D010290F
:1008100000D0F4E0016A102399430162016A302399
:10082000994313695B085C010C431768516809011F
:10083000214345688369734EB04202D0724EB04284
:1008400019D10326B602B543546904943E4697690C
:10085000D4690394BF006F4C3C4037462C43039D42
:10086000ED002543C024A143049C6408E4010C432B
:10087000916889012143456073242402A3433C020B
:100880001C438461D268826301620127B7E00124BE
:100890002502A94256D02503A94200D0AFE0016A43
:1008A000A9430162016A4568166853680493136995
:1008B0000393C769534B984203D0534B984200D0DF
:1008C00085E001239B039D4393699B012B437FE0BC
:1008D0000127F943046A0C40046214690C40056A5C
:1008E00003239D43254311680491516829434668B9
:1008F0008569444CA04202D0434CA04218D11C024E
:10090000A643012463020193536903939369D46955
:100910000294019CA3433343029C66001E430C23B4
:100920009943039B5B08DB000B43916889001943E3
:10093000466073239D43049B1D438561D2684263D7
:1009400001625CE001273902036A8B43036230498C
:10095000491C13691C020C4003231902056A8D43CC
:1009600025431168049151680C022C434668C569FF
:100970002449884202D0244988421ED119038E435B
:100980005169039191690191D1690291019909011C
:1009900001911E490093019B19403143029E76014B
:1009A0000E43009989028C431A49091D039B9B023F
:1009B0000B40234391688C021C43466073218D4396
:1009C00004990D43C561D168C163046217E02B46E9
:1009D000436073231B029F4333023B43C361D268CE
:1009E0000264032212039143084A1032039B1B0343
:1009F00013400B4304990903194301622746384603
:100A000005B0F0BD00440140002C0140F0DFFFFFC5
:100A1000FFFDFFFFFCF7FFFFF0B585B00D46C16895
:100A20000024890460D4C168314A0A4069681143CE
:100A3000EA680A4329691143C1600127FE0241693E
:100A4000B143AA690A434261790302698A43A968EA
:100A500011430161696903221202436993430B4305
:100A60000190436102A8FFF763FE049A002A3BD07D
:100A70002968002938D019205043AA69B24216D1FA
:100A80004900FFF74EFB054664263146FFF749FB58
:100A90000446194860434019C00032303146FFF720
:100AA00040FB0721014040001F22120113E0890092
:100AB000FFF737FB054664263146FFF732FB044655
:100AC0000C4860434019000132303146FFF729FBE2
:100AD0000F210140F022024020011018074A024075
:100AE0005118019881603C46204605B0F0BDC046D3
:100AF000F3E9FFFF9CFFFF0F9CFFFF1FF0FF0000CB
:100B000081B007490A680092401C01D30020C0430D
:100B1000009A0A68D203D2171018FAD101B07047B0
:100B200010E000E070470000F0B587B0042800D264
:100B300091E0DE4A12780392DA4A12780492DC4A93
:100B400012780192D84A128800920024029406E09A
:100B5000069C059A8918801AC2B2032A7FD92546B5
:100B6000CB788C782402E3181A1DC4B2A24275D83F
:100B700005920A78571E7E427E412C463443022A53
:100B800001D102273C434D78152A01D110273C435F
:100B9000162A01D120273C4306941446153C67428F
:100BA0006741012B1AD13E4318D0012D16D10E7981
:100BB000012E13D8012ABB4F00D0BC4F3E70012A32
:100BC000049F00D0039FFCB2B44231D001240294B0
:100BD000012A2FD1012A00D0049E04961446163C07
:100BE00066426641941E67426741042BB0D1374389
:100BF000069CAED0022DACD10C79002CA8D14C793A
:100C0000002CA5D1CE798C792402A519022A15D100
:100C1000E12292002C46643C944299D8A24A158065
:100C2000009AAA42069C01D001220292009590E708
:100C3000012ACFD00396012ACED1CEE76A1E032A1D
:100C4000069C86D89A4A1670019A954201D00122D4
:100C5000029201967DE70125002404E02C460298CB
:100C6000C0B245424541E4B2002C1BD0204600F002
:100C7000C7F8A00707D08B480078002801D08A4821
:100C8000008810490880A006800F0BD087480078A4
:100C9000002802D08648007802E00B490020087046
:100CA0000A490870002D0BD1094800780A214143F8
:100CB000084800680818012800D801200649086083
:100CC00007B0F0BDE2000020DE000020DF000020C1
:100CD000D0000020B4010020D400002070477047ED
:100CE000F0B5A3B002920E46074603AD8024284615
:100CF0002146FFF704FA02982881049603970126FB
:100D000033043B4A151F28681842FBD1106800289D
:100D100008D510460C383749016037490160106822
:100D2000002861D428681842FCD1106802210143D0
:100D300011603249FF20086028681842FCD17F20EA
:100D4000C7432021384601E0001D06D02B4A8218F7
:100D50001259521CF8D1491EF6E70020090601D0AD
:100D600023B0F0BD009029681942FCD1EFF3108048
:100D7000019072B61E4A116802963143116008E074
:100D80001E483A1803AEF6193659165100290F4677
:100D900008D0391DF4D10122D20415480668164343
:100DA0000660EDE729681942FCD1114E3168029CBA
:100DB000A1433160019880F3108829681942FCD161
:100DC000E10732680A4332603268002A09D42A688F
:100DD0001A42FCD132680A43326031680029009817
:100DE000BED5204623B0F0BD002023B0F0BDC046E4
:100DF0001420024023016745AB89EFCD00130008A2
:100E000010B588B0C10703D1002182070DD41DE0C1
:100E100069460122CA7000238B704A700A70214A09
:100E200012780A710521820710D56A4602235354AD
:100E30005218537000239370537113710423D370AD
:100E4000194B1B88D3711B0A93710831C20618D441
:100E5000800610D56846162242544018002282713E
:100E6000427102710423C370827002224270104AE0
:100E70001278C271083107206A4600F081FA08B082
:100E800010BD6A461523535452180123D370002411
:100E900094705370054B1B781371491D8006D9D48B
:100EA000E9E7C046DC000020D8000020DA0000207E
:100EB000DB0000207047000008480168084A0A402B
:100EC00008490968084B19405118C918491C0160A4
:100ED0000120C006054908607047C0460410024062
:100EE0000000FFFF040FFF1FFF1F000008ED00E0E0
:100EF00080B507480168C90708D0011F0968C907FC
:100F000004D00121C9430160FFF706FA80BDC04645
:100F1000102C014080B5FFF70DFA80BDB0B5044636
:100F2000AB480178AB4D2A780078914200D264300A
:100F30002978401AC0B2A04201D2FFF72DFB2878D1
:100F40000019292109014143090C64224A43801AEE
:100F50002870B0BDF0B585B004929D4C25789D4EAB
:100F600032782378954200D2643332789A1AD5B217
:100F70000027072D47D303912178327823789142B7
:100F800000D26433DAB231788A42029005D1FFF799
:100F900003FB002055280CD01FE030782921414365
:100FA000090B64224A43801AC0B28B49085C552859
:100FB00013D1217832782078914200D26430317890
:100FC000401AC0B2022821D33078401C6421FFF7B8
:100FD000A8F88148405CAA281DD021783278207872
:100FE000914200D26430C0B23178884201D1FFF71B
:100FF000D3FA292000013178491C4843000C6422AF
:101000004243881A3070384605B0F0BDFFF7C4FA85
:101010000020AA28E1D1217832782078914200D2AC
:1010200064303178401AC0B2032807D33078801C6E
:101030006421FFF776F86848405C02E0FFF7ACFAFD
:1010400000200190217832782078914200D26430DB
:101050003178401AC0B2042807D33078C01C64210C
:10106000FFF75FF85C48405C02E0FFF795FA00206C
:1010700002990870217832782078914200D2643049
:101080003178401AC0B2052809D33078001D642198
:10109000FFF747F85048475C781E874102E0FFF7AA
:1010A0007BFA0027217832782078914200D2643090
:1010B0003178401AC0B2062807D33078401D642129
:1010C000FFF72FF84448405C02E0FFF765FA002084
:1010D000039908704028029A01D8002100E00121FC
:1010E0000F43012F17D1217832782078914200D216
:1010F0006430C0B23178884201D1FFF74DFA29201F
:1011000000013178491C4843000C64224243881A8C
:101110003070002777E7C11D00230093A94201D951
:10112000009F70E70199081811784518FF35039F53
:101130003878002824D000270AE0FFF72DFA002095
:101140000499C8552D187F1C03980078874214D243
:10115000217832782078914200D264303178401A78
:10116000C1B2B81DC0B28142E7D9317808186421F4
:10117000FEF7D7FF1848405CE2E7EDB2039F00E0BE
:10118000EDB22278337821789A4200D264313278F5
:10119000891AC9B2801DC0B2814207D931780818B6
:1011A0006421FEF7BEFF0C48405C02E0FFF7F4F953
:1011B0000020A84206D13878C01DC0B2FFF7AEFEAD
:1011C000012720E70720FFF7A9FE009F1BE7C04685
:1011D000490100204A010020E500002002E008C883
:1011E000121F08C1002AFAD170477047002001E0A1
:1011F00001C1121F002AFBD170470000BC02000091
:10120000170200006D010000000000000000000057
:1012100000000000000000000000000000000000CE
:1012200000000000000000000100000002000000BB
:10123000030000000400000006000000070000009A
:10124000080000000900000000000000000000008D
:10125000000000000000000001000000020000008B
:10126000030000000400000000093D0000127A00A5
:101270000024F4004086510100366E0100093D0053
:1012800000093D0000093D007B2270223A225344B0
:1012900053222C2276223A22312E30227D00000069
:1012A0001018000800000020D0000000DC11000829
:1012B000E0180008D0000020F0040000EC11000845
:1012C000000000000000000000000000000000001E
:1012D000000000000000000000000000000000000E
:1012E00000000000000000000000000000000000FE
:1012F00000000000000000000000000000000000EE
:10130000E8030400BC0217026D01000000000000A9
:1013100000000000000000000000000000000000CD
:1013200000000000000000000000000000000000BD
:1013300000000000000000000000000000000000AD
:10134000000000000000000000000000000000009D
:10135000000000000000000000000000000000008D
:10136000000000000000000000000000000000007D
:10137000000000000000000000000000000000006D
:10138000F0B582B00090444B1C7844485526065571
:101390001C78641C1C701C78642C01D300241C7005
:1013A0003F4807688026374307601878AA273B4DD7
:1013B0002F541878401C18701878642801D3002026
:1013C0001870374C206830432060187803272F545A
:1013D0001878401C18701878642801D30020187001
:1013E0002068304320601878009F2F541878401CE4
:1013F00018701878642801D30020187020683043D2
:1014000020601878002401942C541878401C18701F
:101410001878642801D301981870EC4C2068304388
:101420002060187829541878401C1870187864289F
:1014300001D3019818702068304320607C18812007
:101440004000201807E0E14C2568354325601578F9
:101450004019491E521C00290CD015781F780F4CDA
:10146000E5551D786D1C1D701D78642DEBD3019C16
:101470001C70E8E71978094A50541878401C187015
:101480001878642801D301981870D049086830434F
:10149000086002B0F0BDC046AF0100204B01002043
:1014A0000C380140AAB01CA8002404701BA80470CA
:1014B0000AA804700121080204907D20C000039056
:1014C000C80208900803029048030790880306901A
:1014D000C80301900991C8430590C84E4FE0BA4E29
:1014E0003068099DA843306021941DA90C741D9497
:1014F000C720088020941E94B2481F903046FFF702
:1015000057F9306804210143316005983061F06873
:101510002843F0603068284330600798AC49086081
:10152000AC4A1068AC4908400699084310602994F9
:101530002894279426942494239425946020229020
:1015400022AF304602993A46FFF75AF9F0690899F6
:101550000843F0610398259070202290304604994A
:101560003A46FFF74DF9F06908210143F161706CCB
:101570000199084370640220984908709F4E97486B
:101580000078022800D181E0012869D0002800D02D
:1015900000E1FEF76DFEFEF711FE8C4F3868079DE7
:1015A000A84338607868089988437860B86808214B
:1015B0008843B860289427940C202690259424947E
:1015C0002394E1204002229038460C3822A9FFF7EC
:1015D00023FA38682843386038682021014339608D
:1015E000FF2000067B4AD1688143099FB80708188D
:1015F000D060F806764E3060734E3068B843306085
:10160000269422A90C7422947E4808802594239461
:101610006C4824903046FFF7CBF830680421014332
:10162000316005983061F0683843F06030683843C5
:101630003060724E66480560664A10686649084028
:101640000699084310600AA80470644807706E4841
:1016500000680188634A11808078644908708EE7C9
:10166000307800288BD030783C2800D137E73078AC
:10167000322800D09AE0544E3068099DA84330606B
:1016800021941DA90C741D94EF2032E71CA81BA9FE
:101690000BAAFFF75FFC002852D01CA8007808288E
:1016A0004ED8C0467844007940008744043B0D443E
:1016B00049496D490F0000200AAF099D29463A4665
:1016C000FFF75EFE3D703BE0022035E022AA099B59
:1016D000D37094705370137094725472042010720B
:1016E000D4710221917151711374D47393731523C2
:1016F00053733B4B1B7813713A4B1B8813731B0AB4
:10170000D3721476D475947550751475D1741620EF
:10171000907435480078507434480078507607202B
:101720001A210BE0324807683846FEF7F3FCC1B2D5
:1017300001203A4602E0032000210A46FFF720FE7E
:101740002C480068002800D119E72A4800682A4977
:101750000968814200D212E727490968081A00D5B2
:101760000DE7FF200006009901401E480088081878
:101770001E49097809040818009021462246FFF7FF
:10178000AFFA1C480460FAE61BA800780BA9FFF723
:10179000CBF9D5E7642011490870194C2068202145
:1017A000414021609620FFF7ABF9F7E764200B4931
:1017B0000870134C20682021414021609620FFF7DB
:1017C0009FF9F7E75FEA0000002C01400C38014068
:1017D00000E100E00CE400E0FF00FFFFE400002077
:1017E000DC000020D8000020DA000020DB00002010
:1017F000C8000020D4000020B4010020D000002048
:1018000014000050E7030000C400002000000000A6
:1018100000000000000000000000000000000000C8
:1018200000000000000000000000000000000000B8
:1018300000000000000000000000000000000000A8
:101840000000000000000000000000000000000098
:101850000000000000000000000000000000000088
:101860000000000000000000000000000000000078
:101870000000000000000000000000000000000068
:101880000000000000000000000000000000000058
:101890000000000000000000000000000000000048
:1018A0000000000000000000000000000000000038
:1018B0000000000000000000000000000000000028
:1018C0000000000000000000000000000000000018
:1018D00000127A00001300088812000800000000BF
:04000005080000C12E
:00000001FF
